{
  "contractName": "PassportAuth",
  "abi": [
    {
      "anonymous": false,
      "inputs": [
        {
          "indexed": false,
          "internalType": "uint256",
          "name": "passportNumber",
          "type": "uint256"
        },
        {
          "indexed": false,
          "internalType": "address",
          "name": "owner",
          "type": "address"
        }
      ],
      "name": "PassportCreated",
      "type": "event"
    },
    {
      "inputs": [
        {
          "internalType": "address",
          "name": "",
          "type": "address"
        },
        {
          "internalType": "uint256",
          "name": "",
          "type": "uint256"
        }
      ],
      "name": "ownerPassports",
      "outputs": [
        {
          "internalType": "uint256",
          "name": "",
          "type": "uint256"
        }
      ],
      "stateMutability": "view",
      "type": "function",
      "constant": true
    },
    {
      "inputs": [
        {
          "internalType": "uint256",
          "name": "",
          "type": "uint256"
        }
      ],
      "name": "passports",
      "outputs": [
        {
          "internalType": "string",
          "name": "name",
          "type": "string"
        },
        {
          "internalType": "uint256",
          "name": "passportNumber",
          "type": "uint256"
        },
        {
          "internalType": "string",
          "name": "country",
          "type": "string"
        },
        {
          "internalType": "uint256",
          "name": "issueDate",
          "type": "uint256"
        },
        {
          "internalType": "uint256",
          "name": "expiryDate",
          "type": "uint256"
        },
        {
          "internalType": "address",
          "name": "owner",
          "type": "address"
        }
      ],
      "stateMutability": "view",
      "type": "function",
      "constant": true
    },
    {
      "inputs": [
        {
          "internalType": "uint256",
          "name": "_passportNumber",
          "type": "uint256"
        },
        {
          "internalType": "string",
          "name": "_name",
          "type": "string"
        },
        {
          "internalType": "string",
          "name": "_country",
          "type": "string"
        },
        {
          "internalType": "uint256",
          "name": "_issueDate",
          "type": "uint256"
        },
        {
          "internalType": "uint256",
          "name": "_expiryDate",
          "type": "uint256"
        }
      ],
      "name": "createPassport",
      "outputs": [],
      "stateMutability": "nonpayable",
      "type": "function"
    },
    {
      "inputs": [
        {
          "internalType": "address",
          "name": "_owner",
          "type": "address"
        }
      ],
      "name": "verifyPassportByAddress",
      "outputs": [
        {
          "internalType": "bool",
          "name": "",
          "type": "bool"
        }
      ],
      "stateMutability": "view",
      "type": "function",
      "constant": true
    },
    {
      "inputs": [
        {
          "internalType": "address",
          "name": "_owner",
          "type": "address"
        }
      ],
      "name": "getOwnerPassports",
      "outputs": [
        {
          "internalType": "uint256[]",
          "name": "",
          "type": "uint256[]"
        }
      ],
      "stateMutability": "view",
      "type": "function",
      "constant": true
    }
  ],
  "bytecode": "0x608060405234801561001057600080fd5b50610fb2806100206000396000f3fe608060405234801561001057600080fd5b50600436106100575760003560e01c806322ba286f1461005c5780632e1eaed01461008c57806373269c95146100bc578063cb22f5fd146100d8578063d9643ce21461010d575b600080fd5b61007660048036038101906100719190610985565b61013d565b6040516100839190610be5565b60405180910390f35b6100a660048036038101906100a191906109ae565b6101d4565b6040516100b39190610cb1565b60405180910390f35b6100d660048036038101906100d19190610a13565b610205565b005b6100f260048036038101906100ed91906109ea565b610400565b60405161010496959493929190610c22565b60405180910390f35b61012760048036038101906101229190610985565b61056c565b6040516101349190610c07565b60405180910390f35b6060600160008373ffffffffffffffffffffffffffffffffffffffff1673ffffffffffffffffffffffffffffffffffffffff1681526020019081526020016000208054806020026020016040519081016040528092919081815260200182805480156101c857602002820191906000526020600020905b8154815260200190600101908083116101b4575b50505050509050919050565b600160205281600052604060002081815481106101f057600080fd5b90600052602060002001600091509150505481565b6000806000878152602001908152602001600020600101541461025d576040517f08c379a000000000000000000000000000000000000000000000000000000000815260040161025490610c91565b60405180910390fd5b60006040518060c001604052808681526020018781526020018581526020018481526020018381526020013373ffffffffffffffffffffffffffffffffffffffff1681525090508060008088815260200190815260200160002060008201518160000190805190602001906102d3929190610850565b506020820151816001015560408201518160020190805190602001906102fa929190610850565b50606082015181600301556080820151816004015560a08201518160050160006101000a81548173ffffffffffffffffffffffffffffffffffffffff021916908373ffffffffffffffffffffffffffffffffffffffff160217905550905050600160003373ffffffffffffffffffffffffffffffffffffffff1673ffffffffffffffffffffffffffffffffffffffff1681526020019081526020016000208690806001815401808255809150506001900390600052602060002001600090919091909150557f41927cfe3b9a81e52bd8f8563cc9a4c73e83908941887590d79191e7e482a1bb86336040516103f0929190610ccc565b60405180910390a1505050505050565b600060205280600052604060002060009150905080600001805461042390610e35565b80601f016020809104026020016040519081016040528092919081815260200182805461044f90610e35565b801561049c5780601f106104715761010080835404028352916020019161049c565b820191906000526020600020905b81548152906001019060200180831161047f57829003601f168201915b5050505050908060010154908060020180546104b790610e35565b80601f01602080910402602001604051908101604052809291908181526020018280546104e390610e35565b80156105305780601f1061050557610100808354040283529160200191610530565b820191906000526020600020905b81548152906001019060200180831161051357829003601f168201915b5050505050908060030154908060040154908060050160009054906101000a900473ffffffffffffffffffffffffffffffffffffffff16905086565b600080600160008473ffffffffffffffffffffffffffffffffffffffff1673ffffffffffffffffffffffffffffffffffffffff1681526020019081526020016000208054806020026020016040519081016040528092919081815260200182805480156105f857602002820191906000526020600020905b8154815260200190600101908083116105e4575b5050505050905060008151141561061357600091505061084b565b60005b815181101561084457600080600084848151811061065d577f4e487b7100000000000000000000000000000000000000000000000000000000600052603260045260246000fd5b602002602001015181526020019081526020016000206040518060c001604052908160008201805461068e90610e35565b80601f01602080910402602001604051908101604052809291908181526020018280546106ba90610e35565b80156107075780601f106106dc57610100808354040283529160200191610707565b820191906000526020600020905b8154815290600101906020018083116106ea57829003601f168201915b505050505081526020016001820154815260200160028201805461072a90610e35565b80601f016020809104026020016040519081016040528092919081815260200182805461075690610e35565b80156107a35780601f10610778576101008083540402835291602001916107a3565b820191906000526020600020905b81548152906001019060200180831161078657829003601f168201915b5050505050815260200160038201548152602001600482015481526020016005820160009054906101000a900473ffffffffffffffffffffffffffffffffffffffff1673ffffffffffffffffffffffffffffffffffffffff1673ffffffffffffffffffffffffffffffffffffffff168152505090508060800151421015610830576001935050505061084b565b50808061083c90610e67565b915050610616565b5060009150505b919050565b82805461085c90610e35565b90600052602060002090601f01602090048101928261087e57600085556108c5565b82601f1061089757805160ff19168380011785556108c5565b828001600101855582156108c5579182015b828111156108c45782518255916020019190600101906108a9565b5b5090506108d291906108d6565b5090565b5b808211156108ef5760008160009055506001016108d7565b5090565b600061090661090184610d26565b610cf5565b90508281526020810184848401111561091e57600080fd5b610929848285610df3565b509392505050565b60008135905061094081610f4e565b92915050565b600082601f83011261095757600080fd5b81356109678482602086016108f3565b91505092915050565b60008135905061097f81610f65565b92915050565b60006020828403121561099757600080fd5b60006109a584828501610931565b91505092915050565b600080604083850312156109c157600080fd5b60006109cf85828601610931565b92505060206109e085828601610970565b9150509250929050565b6000602082840312156109fc57600080fd5b6000610a0a84828501610970565b91505092915050565b600080600080600060a08688031215610a2b57600080fd5b6000610a3988828901610970565b955050602086013567ffffffffffffffff811115610a5657600080fd5b610a6288828901610946565b945050604086013567ffffffffffffffff811115610a7f57600080fd5b610a8b88828901610946565b9350506060610a9c88828901610970565b9250506080610aad88828901610970565b9150509295509295909350565b6000610ac68383610bc7565b60208301905092915050565b610adb81610dab565b82525050565b6000610aec82610d66565b610af68185610d89565b9350610b0183610d56565b8060005b83811015610b32578151610b198882610aba565b9750610b2483610d7c565b925050600181019050610b05565b5085935050505092915050565b610b4881610dbd565b82525050565b6000610b5982610d71565b610b638185610d9a565b9350610b73818560208601610e02565b610b7c81610f3d565b840191505092915050565b6000610b94601783610d9a565b91507f50617373706f727420616c7265616479206578697374730000000000000000006000830152602082019050919050565b610bd081610de9565b82525050565b610bdf81610de9565b82525050565b60006020820190508181036000830152610bff8184610ae1565b905092915050565b6000602082019050610c1c6000830184610b3f565b92915050565b600060c0820190508181036000830152610c3c8189610b4e565b9050610c4b6020830188610bd6565b8181036040830152610c5d8187610b4e565b9050610c6c6060830186610bd6565b610c796080830185610bd6565b610c8660a0830184610ad2565b979650505050505050565b60006020820190508181036000830152610caa81610b87565b9050919050565b6000602082019050610cc66000830184610bd6565b92915050565b6000604082019050610ce16000830185610bd6565b610cee6020830184610ad2565b9392505050565b6000604051905081810181811067ffffffffffffffff82111715610d1c57610d1b610f0e565b5b8060405250919050565b600067ffffffffffffffff821115610d4157610d40610f0e565b5b601f19601f8301169050602081019050919050565b6000819050602082019050919050565b600081519050919050565b600081519050919050565b6000602082019050919050565b600082825260208201905092915050565b600082825260208201905092915050565b6000610db682610dc9565b9050919050565b60008115159050919050565b600073ffffffffffffffffffffffffffffffffffffffff82169050919050565b6000819050919050565b82818337600083830152505050565b60005b83811015610e20578082015181840152602081019050610e05565b83811115610e2f576000848401525b50505050565b60006002820490506001821680610e4d57607f821691505b60208210811415610e6157610e60610edf565b5b50919050565b6000610e7282610de9565b91507fffffffffffffffffffffffffffffffffffffffffffffffffffffffffffffffff821415610ea557610ea4610eb0565b5b600182019050919050565b7f4e487b7100000000000000000000000000000000000000000000000000000000600052601160045260246000fd5b7f4e487b7100000000000000000000000000000000000000000000000000000000600052602260045260246000fd5b7f4e487b7100000000000000000000000000000000000000000000000000000000600052604160045260246000fd5b6000601f19601f8301169050919050565b610f5781610dab565b8114610f6257600080fd5b50565b610f6e81610de9565b8114610f7957600080fd5b5056fea2646970667358221220d384cfc49d980a598709dde6b60325baf99a16f2c7cc2e6de9f055760983272464736f6c63430008000033",
  "immutableReferences": {},
  "source": "// SPDX-License-Identifier: MIT\r\npragma solidity ^0.8.0;\r\n\r\ncontract PassportAuth {\r\n    struct Passport {\r\n        string name;\r\n        uint256 passportNumber;\r\n        string country;\r\n        uint256 issueDate;\r\n        uint256 expiryDate;\r\n        address owner;\r\n    }\r\n\r\n    mapping(uint256 => Passport) public passports; // Maps passportNumber to Passport\r\n    mapping(address => uint256[]) public ownerPassports; // Maps owner's address to their passport numbers\r\n\r\n    event PassportCreated(uint256 passportNumber, address owner);\r\n\r\n    // Create a new passport\r\n    function createPassport(\r\n        uint256 _passportNumber,\r\n        string memory _name,\r\n        string memory _country,\r\n        uint256 _issueDate,\r\n        uint256 _expiryDate\r\n    ) public {\r\n        // Ensure the passport does not already exist\r\n        require(passports[_passportNumber].passportNumber == 0, \"Passport already exists\");\r\n\r\n        // Create the passport\r\n        Passport memory newPassport = Passport({\r\n            name: _name,\r\n            passportNumber: _passportNumber,\r\n            country: _country,\r\n            issueDate: _issueDate,\r\n            expiryDate: _expiryDate,\r\n            owner: msg.sender\r\n        });\r\n\r\n        passports[_passportNumber] = newPassport; // Save passport\r\n        ownerPassports[msg.sender].push(_passportNumber); // Track owner's passports\r\n        \r\n        emit PassportCreated(_passportNumber, msg.sender);\r\n    }\r\n    \r\n    // Verify passport by public key (owner address)\r\n    // Verify passport by public key (owner address) and check if not expired\r\n    function verifyPassportByAddress(address _owner) public view returns (bool) {\r\n        uint256[] memory ownerPassportList = ownerPassports[_owner];\r\n        if (ownerPassportList.length == 0) return false;\r\n\r\n        for (uint i = 0; i < ownerPassportList.length; i++) {\r\n            Passport memory p = passports[ownerPassportList[i]];\r\n            if (block.timestamp < p.expiryDate) {\r\n                return true; // Valid and not expired\r\n            }\r\n        }\r\n        return false; // All expired\r\n    }\r\n\r\n\r\n    // Retrieve passports associated with a specific public key (owner address)\r\n    function getOwnerPassports(address _owner) public view returns (uint256[] memory) {\r\n        return ownerPassports[_owner];\r\n    }\r\n}\r\n",
  "sourcePath": "D:\\summa\\contracts\\Passport.sol",
  "compiler": {
    "name": "solc",
    "version": "0.8.0+commit.c7dfd78e.Emscripten.clang"
  },
  "schemaVersion": "3.4.16",
  "updatedAt": "2025-07-10T16:07:14.558Z",
  "networkType": "ethereum",
  "devdoc": {
    "kind": "dev",
    "methods": {},
    "version": 1
  },
  "userdoc": {
    "kind": "user",
    "methods": {},
    "version": 1
  }
}